:100000000C94500C0C94900C0C94900C0C94900C40
:100010000C94900C0C94900C0C94900C0C94900CF0
:100020000C94900C0C94900C0C94900C0C94900CE0
:100030000C94900C0C94900C0C94900C0C94900CD0
:100040000C94900C0C943C5F0C94900C0C94900CC1
:100050000C94900C0C941C5A0C94900C0C94065913
:100060000C94900C0C94855F0C947B5F0C94900C1A
:100070000C94900C0C94900C0C94900C0C94900C90
:100080000C94900C0C94900C0C94900C0C94900C80
:100090000C94900C0C94900C0C94900C0C94900C70
:1000A0000C94900C0C94900C0C94900C0C94900C60
:1000B0000C94900C0C94900C0C94900C0C94900C50
:1000C0000C94900C0C94900C0C94900C0C94900C40
:1000D0000C94900C0C94900C0C94900C0C94900C30
:1000E0000C94900C084AD73B3BCE016E84BCBFFDFC
:1000F000C12F3D6C74319ABD56833DDA3D00C77FF8
:1001000011BED9E4BB4C3E916BAAAABE0000008090
:100110003F05A84CCDB2D44EB93836A9020C50B91F
:10012000918688083CA6AAAA2ABE000000803F004B
:100130004E414E494E495459494E46CDCCCC3D0ACC
:10014000D7233C17B7D13877CC2B329595E6241FAF
:10015000B14F0A000020410000C84200401C462068
:10016000BCBE4CCA1B0E5AAEC59D74434F4D4D5577
:100170004E49434154494F4E0044525952554E0046
:100180004552524F525300494E464F004543484F47
:10019000006563686F3A004572726F723A002044DE
:1001A0000020204D323030205300202844697361F4
:1001B000626C6564293A0046696C616D656E7420F5
:1001C00073657474696E67730020204D323031207E
:1001D00058004D617820416363656C657261746994
:1001E0006F6E2028756E6974732F7332290020207A
:1001F0004D3230332058004D617820666565647259
:10020000617465732028756E6974732F73290020DB
:10021000520020204D323034205000416363656C21
:1002200065726174696F6E2028756E6974732F73BF
:1002300032292028503C7072696E742D61636365A9
:100240006C3E20523C726574726163742D6163630D
:10025000656C3E20543C74726176656C2D616363FD
:10026000656C3E2900204A002054002053002020C5
:100270004D323035204200416476616E6365642002
:1002800028423C6D696E5F7365676D656E745F745F
:10029000696D655F75733E20533C6D696E5F666581
:1002A0006564726174653E20543C6D696E5F747262
:1002B0006176656C5F66656564726174653E204A4F
:1002C0003C6A756E635F6465763E290020440020B9
:1002D000490020204D333031205000486F74656E46
:1002E00064205049440020496E76616C6964206541
:1002F00078747275646572200020204D323036208B
:100300005800486F6D65206F6666736574004361C1
:10031000703A0020746F6F206C6F6E672065787480
:10032000727573696F6E2070726576656E74656440
:100330000A0020636F6C6420657874727573696F4E
:100340006E2070726576656E7465640A0020573A97
:100350000020573A006F70656E0054524947474578
:10036000524544003A20007A5F6D696E00795F6DF6
:10037000696E00785F6D696E005265706F727469A6
:100380006E6720656E6473746F702073746174752A
:10039000730A005761726E696E673A20486F6D6923
:1003A0006E672042756D702044697669736F7220A4
:1003B0003C20310A00020204000048430000484388
:1003C000000048430000A0400000A04000000040A2
:1003D000000048430000484300004843000000007C
:1003E000000000000000000048617264636F6465F3
:1003F000642044656661756C742053657474696E1D
:100400006773204C6F6164656400000096430000D0
:1004100096430000A0400000C8410000A042000038
:10042000A0420000C8430000FA43B80B0000B80B1C
:100430000000640000001027000020286D6D2900D6
:1004400020204D3134392043203B20556E69747390
:1004500020696E2043656C736975730A0054656D7D
:10046000706572617475726520556E6974730020D1
:1004700020473231203B004C696E65617220556E19
:100480006974730020436F756E7420583A004500FC
:10049000626564002C2073797374656D2073746FCA
:1004A0007070656421204865617465725F49443AE3
:1004B00020004572723A204D415854454D50004D30
:1004C000415854454D502074726967676572656480
:1004D000004572723A204D494E54454D50004D49E9
:1004E0004E54454D502074726967676572656400AB
:1004F000202F002042403A0020403A0020014001D5
:1005000030013B01400136016001310170012C01D5
:1005100090012701B0012201C0011D01F001180165
:100520001002130130020E01600209019002040161
:10053000C002FF000003FA004003F5008003F00052
:10054000D003EB002004E6007004E100E004DC00CE
:100550004005D700C005D2004006CD00D006C80037
:100560008007C3003008BE00F008B900C009B4001D
:10057000B00AAF00B00BAA00D00CA500000EA0007E
:10058000500F9B00C01096005012910000148C0078
:10059000C0158700B0178200B0197D00D01B78000D
:1005A000001E730040206E0090226900F024640059
:1005B00040275F0090295A00E02B5500102E500074
:1005C00020304B0010324600E033410090353C00B3
:1005D0001037370070383200A0392D00B03A2800AB
:1005E000A03B2300603C1E00103D1900903D14000C
:1005F000103E0F00703E0A00C03E0500003F0000A4
:10060000403FFBFF803FF6FFC03FF1FF2020506CD2
:10061000616E6E6572427566666572427974657365
:100620003A20002046726565204D656D6F72793AFB
:10063000200020436F6D70696C65643A204A756CC8
:1006400020203420323032360A00204C617374206E
:10065000557064617465643A20323032342D313122
:100660002D3138207C20417574686F723A20286ED5
:100670006F6E652C2064656661756C7420636F6EA7
:10068000666967290A004D61726C696E20322E31ED
:100690002E322E350A0020536F6674776172652002
:1006A00052657365740A00205761746368646F67EC
:1006B0002052657365740A002042726F776E206F56
:1006C00075742052657365740A00204578746572EC
:1006D0006E616C2052657365740A00506F776572A5
:1006E00055700A0073746172740A00656E647374E5
:1006F0006F7073206869743A2000000022002500A2
:1007000028002B002E0031003400020100000501FA
:1007100008010B0105050505070508080808020280
:1007200002020A0A0808040404040101010101018B
:1007300001010303030303030303040707070C0C6E
:100740000C0C0C0C0C0C0202020206060606060635
:1007500006060B0B0B0B0B0B0B0B010210202008DA
:10076000081020401020408002010201080402010C
:10077000010204081020408080402010080402017B
:1007800080040201804020100804020108040201D4
:10079000010204081020408001020408102040805B
:1007A00000000A0B02090C0D0E08070304010000EB
:1007B0000000000000000000000000000000000039
:1007C00000000000000000000000000012111000F6
:1007D0000000000000000000000000000000000019
:1007E00000000000000024F404D9201BC40C5C0E9F
:1007F0009804C4095F0265077101F405F900FB0460
:10080000B30048048700C10369005803550003037F
:100810004500BE023A008402310053022A00290238
:10082000250004022000E4011C00C8011900AF01EA
:100830001700980114008401130071011000610178
:10084000100051010E0043010D0036010B002B0179
:100850000B0020010B00150109000C010900030128
:100860000800FB000800F3000800EB000700E400AC
:100870000600DE000600D8000600D2000600CC000C
:100880000500C7000500C2000500BD000400B90056
:100890000400B5000400B1000400AD000400A9008C
:1008A0000400A5000300A20003009F0004009B00B9
:1008B00003009800030095000200930003009000DD
:1008C00003008D0002008B000300880002008600F8
:1008D000020084000300810002007F0002007D000E
:1008E00002007B0002007900020077000100760020
:1008F00002007400020072000100710002006F002B
:1009000002006D0001006C0002006A000100690035
:10091000020067000100660001006500010064003C
:1009200002006200010061000100600001005F0040
:1009300002005D0001005C0001005B0001005A0044
:100940000100590001005800010057000100560045
:100950000100550001005400010053000000530045
:1009600001005200010051000100500001004F0041
:1009700001004E0000004E0001004D0001004C003F
:1009800001004B0000004B0001004A00010049003B
:100990000100480000004800010047000100460037
:1009A0000000460001004500000045000100440031
:1009B000010043000000430001004200000042002B
:1009C00001004100000041000100400001003F0023
:1009D00000003F0001003E0000003E0001003D001D
:1009E00000003D0001003C0000003C0000003C0015
:1009F00001003B0000003B0001003A0000003A000B
:100A00000100390000003900010038000000380002
:100A100000003800010037000000370001003600F8
:100A200000003600000036000100350000003500EF
:100A300000003500010034000000340000003400E4
:100A400001003300000033000000330001003200D9
:100A500000003200000032000100310000003100CF
:100A600000003100010030000000300000003000C4
:100A700001002F0000002F0000002F0000002F00B9
:100A800001002E0000002E0000002E0001002D00AD
:100A900000002D0000002D0000002D0001002C00A2
:100AA00000002C0000002C0000002C0001002B0096
:100AB00000002B0000002B0000002B0001002A008A
:100AC00000002A0000002A0000002A00010029007E
:100AD0000000290000002900000029000000290072
:100AE0000100280000002800000028000000280065
:100AF0000000280001002700000027000000270058
:100B0000000027000000270001002600000026004A
:100B1000000026000000260000002600010025003D
:100B20000000250000002500000025000000250031
:100B30000000250001002400000024000000240023
:100B40000000240000002400010023000000230016
:100B50000000230000002300000023000000230009
:100B600000002300010022000000220000002200FB
:100B700000002200000022000000220001002100ED
:100B800000002100000021000000210000002100E1
:100B900000002100000021000100200000002000D2
:100BA00000002000000020000000200000002000C5
:100BB000000020000000200001001F0000001F00B6
:100BC00000001F0000001F0000001F0000001F00A9
:100BD00000001F0001001E0000001E0000001E009B
:100BE00000001E00000024F4D43050C38E20C2A2A6
:100BF0004017828B7011127A910D816CD90AA8610D
:100C0000E108C7586607615143061E4B5D05C145A3
:100C1000A7041A411104093D980371393103403684
:100C2000DB0265339102D4305402802E1D02632C06
:100C3000EE01752AC501B028A001102781018F257A
:100C400064012B244B01E0223401AC211F018D20D3
:100C50000D01801FFC00841EED00971DDF00B81CF5
:100C6000D200E61BC600201BBC00641AB200B219F9
:100C7000A8000A19A0006A189900D117910040171E
:100C80008B00B516840031167E00B31579003A1535
:100C90007300C7146F0058146A00EE1366008813BF
:100CA000630025135E00C7125B006C12570015121B
:100CB0005400C111510070114F0021114B00D6108A
:100CC00049008D1047004610440002104200C00F3A
:100CD0004000800F3E00420F3C00060F3B00CB0E51
:100CE0003800930E37005C0E3500270E3400F30DEC
:100CF0003200C10D3100900D3000600D2E00320D1C
:100D00002D00050D2C00D90C2B00AE0C2900850CF4
:100D100029005C0C2700350C27000E0C2600E80B80
:100D20002400C40B2400A00B23007D0B23005A0BCE
:100D30002100390B2100180B2000F80A1F00D90AE6
:100D40001E00BB0A1E009D0A1D00800A1D00630ACA
:100D50001C00470A1B002C0A1B00110A1A00F70985
:100D60001A00DD091900C4091900AB09190092091C
:100D700017007B091800630917004C091600360993
:100D80001600200916000A091500F5081500E008EC
:100D90001400CC081400B8081400A408140090082B
:100DA00013007D0812006B08130058081200460853
:100DB0001200340811002308110012081100010864
:100DC0001100F0071000E0071000D0071000C00766
:100DD0001000B0070F00A107100091070E00830755
:100DE0000F0074070F0065070E0057070E00490734
:100DF0000E003B070D002E070E0020070D00130705
:100E00000D0006070D00F9060C00ED060D00E006CA
:100E10000C00D4060C00C8060C00BC060C00B00682
:100E20000C00A4060B0099060C008D060B00820630
:100E30000B0077060B006C060B0061060A005706D4
:100E40000B004C060A0042060A0038060A002E066D
:100E50000A0024060A001A060A00100609000706FE
:100E60000A00FD050900F4050900EB050900E2058B
:100E70000900D9050900D0050900C7050900BE050C
:100E80000900B5050800AD050800A50509009C0589
:100E90000800940508008C050800840508007C05FE
:100EA0000800740508006C050700650508005D056D
:100EB0000700560508004E050700470507004005D6
:100EC000080038050700310507002A05070023053B
:100ED00007001C050600160507000F05070008059A
:100EE000060002050700FB040600F5040700EE04F7
:100EF0000600E8040600E2040700DB040600D5044F
:100F00000600CF040600C9040600C3040600BD04A1
:100F10000600B7040600B1040500AC040600A604F0
:100F20000600A00405009B0406009504050090043B
:100F300006008A04050085040500800406007A0482
:100F4000050075040500700405006B0405006604C7
:100F50000500610405005C04050057040500520407
:100F600005004D04050048040500430405003E0447
:100F700004003A04050035040500300404002C0484
:100F8000050027040400230405001E0404001A04BD
:100F9000040016040500110404000D0404000904F3
:100FA00005000404040000040400FC030400F8032A
:100FB0000400F4030400F0030400EC030400E8035D
:100FC0000400E4030400E0030400DC030400D8038D
:100FD0000400D4030400D0030400CC030400C803BD
:100FE0000300C50303005D2E00006E2300001318EC
:100FF0000000AF0E00003D08000063040000450241
:101000000000270100006F6B00496E76616C696417
:101010002065787472756465720A00454550524FB8
:101020004D2064697361626C65640A00486F6D6588
:1010300020257320466972737400546F6F206661B7
:10104000722066726F6D204D494E2F4D41580A0037
:101050000000000000000000000000002066616940
:101060006C6564212042616420686561746572204A
:1010700069640A00504944204175746F74756E6547
:101080000023646566696E652044454641554C54AD
:101090005F004B6420004B6920004B7020002066ED
:1010A000696E697368656421205075742074686581
:1010B000206C617374204B702C204B6920616E642E
:1010C000204B6420636F6E7374616E74732066725C
:1010D0006F6D2062656C6F7720696E746F20436F4F
:1010E0006E66696775726174696F6E2E680A00506A
:1010F0004944204175746F74756E6500206661699E
:101100006C6564212074696D656F75740A005049BF
:1011100044204175746F74756E6500544845524D96
:10112000414C2052554E4157415900546865726DEB
:10113000616C2052756E61776179004865617469F0
:101140006E67204661696C65640048656174696E0C
:1011500067206661696C656400206661696C65641E
:10116000212054656D706572617475726520746FAD
:101170006F20686967680A00504944204175746FA0
:1011800074756E6500204B643A2000204B693A204C
:1011900000204B703A200020436C61737369632018
:1011A000504944200A002054753A2000204B753ADB
:1011B0002000206D61783A2000206D696E3A200091
:1011C00020643A200020626961733A200020737421
:1011D0006172740A00504944204175746F74756ED1
:1011E0006500206661696C6564212054656D7065D9
:1011F00072617475726520746F6F20686967680A20
:1012000000504944204175746F74756E65006469BF
:101210007300656E0043290A0061626C65642028D2
:101220006D696E2074656D702000436F6C6420657D
:101230007874727564657320617265200020466C55
:101240006F773A2000250A0046523A002058004F96
:101250004646004F4E003B200020204D61783A204A
:1012600000200020204D696E3A2000203B20002005
:10127000204D3231312053003F4A206F7574206F6A
:10128000662072616E67652028302E303120746FC1
:1012900020302E33290A002F2F00434F4E46494756
:1012A0005F4558504F5254004D4541545041434BB7
:1012B00000434F4F4C45525F54454D5045524154A9
:1012C000555245004348414D4245525F54454D50AB
:1012D000455241545552450042414259535445509C
:1012E00050494E470041524353004D4F54494F4ED1
:1012F0005F4D4F44455300544845524D414C5F505B
:10130000524F54454354494F4E00455854454E445E
:1013100045445F4D323000435553544F4D5F46496D
:10132000524D574152455F55504C4F4144004C4639
:101330004E5F5752495445004C4F4E475F46494C0B
:10134000454E414D45004155544F5245504F525422
:101350005F53445F5354415455530053445F5752B5
:10136000495445005245504541540053444341526D
:10137000440050524F4D50545F535550504F5254AB
:1013800000484F53545F414354494F4E5F434F4DC4
:101390004D414E445300454D455247454E43595FDC
:1013A00050415253455200434153455F4C494748D1
:1013B000545F4252494748544E45535300544F4797
:1013C000474C455F4C494748545300534F46545788
:1013D0004152455F504F574552004255494C445F7A
:1013E00050455243454E54004C4556454C494E4796
:1013F0005F44415441005A5F50524F42450052559C
:101400004E4F5554004155544F4C4556454C005095
:1014100052494E545F4A4F420050524F4752455333
:1014200053004155544F5245504F52545F54454D0F
:1014300050004155544F5245504F52545F504F53F6
:1014400000564F4C554D4554524943004545505266
:101450004F4D0042494E4152595F46494C455F54F9
:1014600052414E534645520053455249414C5F58F4
:101470004F4E5F584F4646004649524D57415245E0
:101480005F4E414D453A4D61726C696E20322E318E
:101490002E322E3520284A756C20203420323032EE
:1014A000362031343A33323A32312920534F5552B3
:1014B00043455F434F44455F55524C3A67697468F2
:1014C00075622E636F6D2F4D61726C696E46697225
:1014D0006D776172652F4D61726C696E2050524F4D
:1014E000544F434F4C5F56455253494F4E3A312E5D
:1014F00030204D414348494E455F545950453A3399
:1015000044205072696E7465722045585452554497
:1015100045525F434F554E543A3120555549443A50
:1015200063656465326132662D343161322D343742
:1015300034382D396231322D6335356336326633B6
:1015400036376666004D3131332053006F666600D2
:101550008C018701800179016B0144454255473A6E
:10156000006F6B002569730025696D202569730084
:101570002569682025696D20256973002569642027
:101580002569682025696D20256973002569792002
:10159000256964202569682025696D202569730007
:1015A0005072696E742074696D653A200047322F5D
:1015B00047332062616420706172616D6574657289
:1015C000730A00486F6D696E67204661696C6564D7
:1015D00000FFFFFFDB0FC93F45BCDA3F8FB302407E
:1015E000FCF0274056946140FE4B9B4084A5D840B8
:1015F000E0231841346A5641E859974164DBD541EC
:101600006E271742B4B75542CE1A9742C8AED5429C
:10161000B5885A43D40684BFA65FA7BF7443E0BF12
:1016200010B11AC01C2C58C0E8F697C0B849D6C0F3
:101630004E4E17C124D355C1802497C1A0B5D5C142
:10164000121A17C244AE55C2781797C26CACD5C2F5
:1016500067885AC320746F6F206C6F6E672065783F
:1016600074727573696F6E2070726576656E7465DD
:10167000640A0020636F6C64206578747275736906
:101680006F6E2070726576656E7465640A00204521
:101690003A00205A3A0020593A00583A00204500B2
:1016A000205A0020590020204D3932205800537410
:1016B0006570732070657220756E697400220A006F
:1016C000556E6B6E6F776E20636F6D6D616E643AF1
:1016D000202200627573793A207061757365642009
:1016E000666F7220696E7075740A00627573793A5C
:1016F0002070617573656420666F72207573657202
:101700000A00627573793A2070726F63657373694A
:101710006E670A00746F6F206D75636820696E6173
:1017200063746976652074696D65202D2063757218
:1017300072656E7420636F6D6D616E643A20002176
:1017400021204B494C4C206361757365642062799C
:1017500020004D3131322053687574646F776E000C
:101760005072696E7465722073746F707065642056
:1017700064756520746F206572726F72732E2046D7
:10178000697820746865206572726F7220616E647A
:1017900020757365204D39393920746F2072657357
:1017A000746172742E202854656D70657261747551
:1017B00072652069732072657365742E2053657499
:1017C0002069742061667465722072657374617239
:1017D00074696E67290A004E6F20436865636B73F6
:1017E000756D2077697468206C696E65206E756D03
:1017F0006265722C204C617374204C696E653A20CE
:1018000000636865636B73756D206D69736D6174DA
:1018100063682C204C617374204C696E653A20001B
:101820004C696E65204E756D626572206973206E1D
:101830006F74204C617374204C696E65204E756D19
:101840006265722B312C204C617374204C696E657B
:101850003A20004D3131300053657269616C20735C
:101860007461747573206D69736D617463680A00C7
:101870006F6B0A00526573656E643A20005072699E
:101880006E7465722068616C7465642E206B696C7F
:101890006C28292063616C6C6564210A0000AF5FCD
:1018A00011241FBECFEFD1E2DEBFCDBF00E00CBFE1
:1018B00084B78093CD0B14BE0FB6F894A895809191
:1018C0006000886180936000109260000FBE12E09B
:1018D000A0E0B2E0EAEBFFED00E00BBF02C0079032
:1018E0000D92A637B107D9F72BE0A6E7B2E001C009
:1018F0001D92AD3CB207E1F71CE0C0E5DCE000E082
:1019000006C021970109802FFE010E94DF6CCF34B1
:10191000D10780E00807A9F70E940B600C94DB6FE9
:101920000C940000CF92DF92EF92FF920F931F93DF
:1019300026EE3FE041E0F901C590D590E590F490A6
:10194000C616D706E806F90658F496958795779552
:101950006795440F2C5F3F4F50E12230350759F710
:1019600040938103613271058105910568F4E6EECB
:10197000FBE06591749190E080E01F910F91FF90E2
:10198000EF90DF90CF900895DC01CB018097A10903
:10199000B109811528E09207A105B105C8F044E01E
:1019A000949F900111242A51384FF90132964591A4
:1019B0005491F901259134916627859FF001849F08
:1019C000000CE11DF61F11242E1B3F0BB901D3CFD4
:1019D0008C019D0136952795179507950C7F0A5127
:1019E000144FF80125913491F801329645915491A4
:1019F000682F6770649FC001659F900D112443E0BC
:101A0000969587954A95E1F7281B390BDFCF282F4C
:101A100030E0F901E056F84F9491F901E65AF84F99
:101A200044912C5E384FF9012491222309F435C0EA
:101A3000992311F191509231F8F4E92FF0E08827C1
:101A4000EB5DF24F8F4F0C94DF6C560D5A0D370D36
:101A50004E0D520D3C0D5D0D630D670D6D0D710D3D
:101A6000750D7B0D7F0D3C0D830D890D8D0D8091C6
:101A700080008F7780938000E22FF0E0EE0FFF1F51
:101A8000E650F94FA591B4918FB7F894EC9161119C
:101A900048C040954E234C938FBF0895809180009D
:101AA0008F7DE8CF80918000877FE4CF84B58F77EA
:101AB00084BDE2CF84B58F7DFBCF8091B0008F775E
:101AC0008093B000D9CF8091B0008F7DF9CF809105
:101AD00090008F7780939000CFCF809190008F7D82
:101AE000F9CF80919000877FF5CF8091A0008F770C
:101AF0008093A000C1CF8091A0008F7DF9CF80910D
:101B0000A000877FF5CF809120018F7780932001FF
:101B1000B3CF809120018F7DF9CF80912001877F05
:101B2000F5CF4E2BB8CF3FB7F89480917D039091BD
:101B30007E03A0917F03B091800326B5A89B05C0CA
:101B40002F3F19F00196A11DB11D3FBFBA2FA92F3C
:101B5000982F8827BC01CD01620F711D811D911D39
:101B600042E0660F771F881F991F4A95D1F70895A5
:101B70008F929F92AF92BF92CF92DF92EF92FF929D
:101B80006B017C01D0DF4B015C01C114D104E10485
:101B9000F104B1F0C8DF681979098A099B09683E28
:101BA00073408105910588F321E0C21AD108E1084C
:101BB000F10888EE880E83E0981EA11CB11CE5CFC9
:101BC000FF90EF90DF90CF90BF90AF909F908F905D
:101BD00008952FB7F8946091790370917A038091FA
:101BE0007B0390917C032FBF0895CF93DF93C09127
:101BF000890BD0918A0B209721F16091850B709110
:101C0000860B8091870B9091880B0E943E6E6E5FD1
:101C10007F4F24976C177D07A4F470932C03609377
:101C20002B03D7DF605C73468F4F9F4F60932D036C
:101C300070932E0380932F0390933003DF91CF9105
:101C4000089510922D0310922E0310922F031092DC
:101C50003003F4CF8F929F92AF92BF92CF92DF92D8
:101C6000EF92FF920F931F93CF93DF93B4E4A0E022
:101C70006A2F70E0AB014B0F511D559547954111EF
:101C800019C0EEEFF4E065917491072E000C880BFB
:101C9000990B0E94B668DF91CF911F910F91FF9031
:101CA000EF90DF90CF90BF90AF909F908F9008956E
:101CB000B42FE0CFA41711F0B41303C0EAE0F6E0AC
:101CC000E2CF9A0121503109220F331F220F331F17
:101CD000F901E450FB4FE590F490F901E050FB4F1F
:101CE000C591D4918E159F0518F3A42FC817D90755
:101CF00008F4BECFF901E250FB4F05911491F901B0
:101D0000EE5FFA4FC590D4908E199F09BC0190E008
:101D100080E00E94B4684B015C01B601601B710B4E
:101D2000072E000C880B990B0E94B6689B01AC0132
:101D3000C501B4010E9415694B015C01CE19DF0990
:101D4000BE0190E080E00E94B4689B01AC01C50137
:101D5000B4010E94D66D6B017C01B801110F880B94
:101D6000990B0E94B6689B01AC01C701B6010E94A5
:101D7000FA6C91CFFC0190E1A6EFB2E001900D92D8
:101D80009A95E1F70895BC012091F3023091F40295
:101D90004091F3025091F4022417350731F481E0A9
:101DA0002617370709F080E008959A01F1CF00C0A7
:101DB00000C08091340380FF23C089988FEF809307
:101DC000AA028091340381FF1EC08F9A8FEF809307
:101DD000AB028091340382FF19C080910B018270A5
:101DE000809309018FEF8093AC028091340383FFCD
:101DF00015C016988FEF8093AD0200C000C0089503
:101E0000899A81E0DCCF8F9881E0E1CF80910B014E
:101E1000809582708093090181E0E5CF169A81E078
:101E2000EACF8091A902877F8093A902129A81E06C
:101E3000089512988091A90288608093A90208955C
:101E400021E030E0082E02C0220F331F0A94E2F78F
:101E5000209530959091A90229232093A9028130E1
:101E600061F020F0823071F081E008955F9A8091F6
:101E700033038E7F80933303F7CF8A9A80913303A5
:101E80008D7FF8CF80910801809581708093060145
:101E9000809133038B7FEECF80E0D2DF81E0D0DF13
:101EA00082E0CEDFBECF813089F070F0823081F0E9
:101EB00021E030E001C0220F8A95EAF78091A90263
:101EC000822B8093A90208955F98F2CF8A98F0CF71
:101ED00090910801917090930601EACFCF93DF9320
:101EE000EC01C43081E0D80764F184E091E0909384
:101EF0008A0B8093890BC4E0D1E06091850B7091CF
:101F0000860B8091870B9091880B0E943E6E6E5FCE
:101F10007F4F24976C177D07D4F470932C03609344
:101F20002B0357DE605C73468F4F9F4F60932D03EA
:101F300070932E0380932F0390933003DF91CF9102
:101F40000895D0938A0BC093890B2097B1F6109215
:101F50002D0310922E0310922F0310923003EECF18
:101F6000CF93DF9380918303811119C0C091110237
:101F7000D0911202219720E030E040E05FE36091D1
:101F8000850B7091860B8091870B9091880B0E9436
:101F9000FA6C0E943E6E21E06C177D070CF020E089
:101FA000822FDF91CF910895AF92BF92CF92DF92AF
:101FB000EF92FF920F931F93CF93DF93C7E1D4E08B
:101FC00003EE13E087E2A82E84E0B82EC12CD12CBA
:101FD0007601C39469917991899199910E94B4682D
:101FE000288939894A895B890E9415690E94436E54
:101FF000F80161937193819391938F01C616D7066F
:10200000E806F90610F46B017C01AC16BD0611F769
:102010006FEF7FEFCB01A70196010E94746C2093B4
:10202000F3033093F4034093F5035093F603DF91E9
:10203000CF911F910F91FF90EF90DF90CF90BF90C5
:10204000AF900895CF92DF92EF92FF928091980324
:10205000882309F457C0C0909403D0909503E09072
:102060009603F090970320E030E0A901C701B60184
:102070000E94B068882309F445C020E030E040E0C9
:102080005FE3C701B6010E9415699B01AC010E9484
:1020900015692BED3FE049E450E40E9415699B016E
:1020A000AC0160E070E080E89FE30E94D66D6B01B8
:1020B0007C01C0928403D0928503E0928603F09263
:1020C00087036091130270911402072E000C880B95
:1020D000990B0E94B6682AE037ED43E25CE30E9468
:1020E0001569A70196010E941569609337027093E4
:1020F00038028093390290933A02FF90EF90DF907C
:10210000CF900895C12CD12C80E8E82E8FE3F82ED3
:10211000D0CF90916F0081E091FD02C080E00895E2
:1021200090916F009D7F90936F000895EFE6F0E02F
:102130008081826080830895ECDF91E09093F502C6
:102140008111F4CF0895CF92DF92EF92FF92CF9357
:10215000DF93C82FDEDF94E0C99FE0011124FE0168
:10216000EA50FD4FC080D180E280F3808111DEDF34
:10217000C850DC4FC701B6010E94B668288139817A
:102180004A815B810E941569DF91CF91FF90EF90AA
:10219000DF90CF9008958F3010F48F5F08958F50A7
:1021A0000895CF93DF939091B10B8091B00B891775
:1021B00040F0891B41F4D0E0C0E0CE01DF91CF9127
:1021C0000895805FF6CF9091AD0B992351F0833045
:1021D00030F48FEF890F19F08093AD0BECCF109294
:1021E000AD0BC091B10B87E4C89FE0011124CA5E1A
:1021F000D94F888180FDDFCF8091B10BCCDF8093F8
:10220000AE0B9091B10B8091AF0B9813D6CF80910C
:10221000AE0B8093AF0BD1CFFC017081472F50E004
:10222000062E02C0559547950A94E2F740FF14C068
:102230004091A80250E0062E02C0559547950A9499
:10224000E2F740FF09C021E030E001C0220F6A95AB
:10225000EAF72095272320830895CF93DF931F92D9
:10226000CDB7DEB787E0898360E0CE010196D4DF89
:1022700061E0CE010196D0DF62E0CE010196CCDFB5
:1022800089810F90DF91CF910895CF93DF9324E060
:10229000829FC0011124EC01C55FDB4FFC01E857B0
:1022A000FC4F8F559C4FDC012D913D914D915C91E0
:1022B00060817181828193810E94FA6C6883798345
:1022C0008A839B83DF91CF9108958F929F92AF92E3
:1022D000BF92CF92DF92EF92FF92CF93DF93209144
:1022E0001702222309F48EC0EC018091A802E82E87
:1022F00080FF2CC08090190290901A02A0901B02BF
:10230000B0901C02288139814A815B81C501B401EA
:102310000E94206F181624F488829982AA82BB82B8
:102320008090250290902602A0902702B09028026B
:10233000288139814A815B81C501B4010E94B0685E
:1023400087FF04C088829982AA82BB82E1FE2CC0EA
:1023500080901D0290901E02A0901F02B09020025B
:102360002C813D814E815F81C501B4010E94206FA7
:10237000181624F48C829D82AE82BF82809029023E
:1023800090902A02A0902B02B0902C022C813D81CB
:102390004E815F81C501B4010E94B06887FF04C00F
:1023A0008C829D82AE82BF82E2FE2CC0C090210250
:1023B000D0902202E0902302F090240228853985F3
:1023C0004A855B85C701B6010E94206F181624F468
:1023D000C886D986EA86FB86C0902D02D0902E0250
:1023E000E0902F02F0903002288539854A855B8580
:1023F000C701B6010E94B06887FF04C0C886D986AD
:10240000EA86FB86DF91CF91FF90EF90DF90CF902F
:10241000BF90AF909F908F900895CF93DF9380915E
:102420009B02659B4AC0816080939B02909103014F
:1024300080919B0291FF43C0826080939B028091B8
:102440009B024B9B3EC0846080939B02C091E6023E
:10245000C0FF0FC08091340380FF0BC080919B02AE
:1024600080FF07C08091CE0381608093CE0380E01F
:1024700063DEC1FF0FC08091340381FF0BC08091E8
:102480009B0281FF07C08091CE0382608093CE03C0
:1024900081E052DEC2FF17C08091340382FF13C077
:1024A00080919B0282FF0FC08091CE038460809355
:1024B000CE0382E0DF91CF913FCE8E7FB5CF8D7F6F
:1024C000BCCF8B7FC1CFDF91CF9108950F931F9326
:1024D0008091A003813011F57CDB0091970210916F
:1024E00098022091990230919A02601B710B820B25
:1024F000930B28EE33E040E050E00E94746C609152
:102500009302709194028091950290919602620FCD
:10251000731F841F951F1F910F91089560919C0355
:1025200070919D0380919E0390919F03D6CF10924E
:10253000A0031092970210929802109299021092A2
:102540009A0210929C0310929D0310929E03109287
:102550009F0310929302109294021092950210928F
:10256000960208958091A0038130D9F08230B9F4A9
:10257000ADDF6093930270939402809395029093E1
:10258000960281E08093A00324DB6093970270930E
:1025900098028093990290939A0281E00895C7DF90
:1025A000F0CF80E008958091A0038150823068F4DC
:1025B0001092A0030EDB60939C0370939D038093A5
:1025C0009E0390939F0381E0089580E008952091F9
:1025D000890B30918A0B263531053CF42091280374
:1025E00030912903263031051CF0882319F0BACF29
:1025F0006111D9CF0895CF93DF93C0912803D09173
:102600002903209721F16091240370912503809183
:102610002603909127030E943E6E6E5F7F4F2497A2
:102620006C177D07A4F470930C0360930B03D1DA4D
:10263000605A75418F4F9F4F60930D0370930E0347
:1026400080930F0390931003DF91CF910895109220
:102650000D0310920E0310920F0310921003F4CF8B
:10266000CF93DF9310927D04C1E8DBE019861886D2
:10267000BCDA1A862C98C0E2D3E019861886BBDF34
:102680001A8680910201807280930001DF91CF91C0
:10269000089590E080E008952091C60B833021F4E6
:1026A00025FD0CC024FD0CC030E0A90102C05595E9
:1026B00047958A95E2F7CA018170089581E00895EF
:1026C00080E008958091B50384FD0BC08091B7032D
:1026D00087FD07C09091B803937081E019F480E002
:1026E000089581E008952FEB280F2A3108F047C0A4
:1026F000E22FF0E08091B5039091B603A091B7036B
:10270000B091B80304C0B695A795979587952A957B
:10271000D2F780FD02C081700895E758FD4FE08137
:10272000EE2341F180917F0490918004E80FF92F0E
:10273000F11D808190ED980F9A3030F08E3251F477
:10274000818180538A3098F4F093BA03E093B903FF
:1027500081E008958D3211F08B3249F4818190ED42
:10276000980F9A3088F38E3211F48281EACFF0E02C
:10277000E0E0EACF1092BA031092B903E9CF80E00B
:102780000895B1DF882341F081E02091B9033091B1
:10279000BA03232B09F480E0089581E00895CF93D4
:1027A000DF93EC01E62F660FFF0BE056F84FE49144
:1027B000E250E13108F0B0C0F0E08827ED51FC4E66
:1027C0008F4F0C94DF6CF4138C148C148C148C14B9
:1027D0001E1400144214401420146614641444148B
:1027E0008C148A148814681482E1EAE4F2E0DE01B1
:1027F00001900D928A95E1F7CE01DF91CF91089576
:1028000081E020EB30E03983288321EB30E03B830B
:102810002A831D821C8223EB30E03F832E8324EB2E
:1028200030E0398728871B861A861D861C8692E031
:102830009E878F8781E0888B198ADECF80E0E1CF89
:1028400081E08F5F20E930E03983288321E930E09F
:102850003B832A8322E930E03D832C8328E930E062
:102860003F832E832AE930E0398728872CE930E03E
:102870003B872A8726E930E03D872C8793E0D8CF35
:1028800080E0DFCF80E0DECF81E08F5F20EA30E0C4
:102890003983288321EA30E03B832A8322EA30E02F
:1028A0003D832C8328EA30E03F832E832AEA30E000
:1028B000398728872CEA30E03B872A8726EA30E0F0
:1028C0003D872C8794E0B4CF80E0DFCF80E0DECF7F
:1028D00081E08F5F20E231E03983288321E231E01B
:1028E0003B832A8322E231E03D832C8328E231E0DE
:1028F0003F832E832AE231E0398728872CE231E0BA
:102900003B872A8726E231E03D872C8795E090CFF0
:1029100080E0DFCF80E0DECF82E1FE0111928A9578
:10292000E9F76ACF9091C00095FFFCCF8093C60075
:1029300008958F929F92AF92BF92EF92FF921F9352
:10294000CF93DF93CDB7DEB7A0970FB6F894DEBF75
:102950000FBECDBF611571058105910589F120E09C
:102960004AE0842E912CA12CB12C11E0120FEE2400
:10297000E394F12CEC0EFD1EE20EF11C27FDFA94FF
:10298000A50194010E94746CF7016083B901CA012A
:10299000212F611571058105910539F7115008F155
:1029A000E1E0F0E0EC0FFD1FE10FF11D17FDFA95DE
:1029B000908187E39A3008F480E3890FB3DFEECF8C
:1029C00080E3A0960FB6F894DEBF0FBECDBFDF91B7
:1029D000CF911F91FF90EF90BF90AF909F908F90FD
:1029E000A1CFA0960FB6F894DEBF0FBECDBFDF918A
:1029F000CF911F91FF90EF90BF90AF909F908F90DD
:102A00000895CF92DF92EF92FF926B017C01F7FE67
:102A10000AC0F094E094D094C094C11CD11CE11C75
:102A2000F11C8DE27FDFC701B601FF90EF90DF90D0
:102A3000CF907FCFE6CFBC01990F880B990BE1CFE8
:102A40008F929F92AF92BF92CF92DF92EF92FF92BE
:102A50006B017C0120E030E0A9010E94B06887FF93
:102A600006C08DE25FDFF7FAF094F7F8F0942BE000
:102A700037ED43EA5BE3C701B6010E94FA6C4B01F4
:102A80005C010E94436E6B017C010E94B4689B0153
:102A9000AC01C501B4010E94F96C4B015C01C70196
:102AA000B60147DF8EE23EDF20E030E040E251E455
:102AB000C501B4010E9415696B017C010E94436E3F
:102AC0004B015C0136DFC501B4010E94B4689B0173
:102AD000AC01C701B6010E94F96C20E030E040E291
:102AE00051E40E9415690E94436EFF90EF90DF90C1
:102AF000CF90BF90AF909F908F901BCFCF93DF93DD
:102B0000EC018991882311F00DDFFBCFDF91CF918C
:102B10000895F4DF8DE006DF8AE004CFCF93DF93E2
:102B2000EC01FE0184912196882311F0FBDEF9CFA0
:102B3000DF91CF910895CF92DF92EF92FF92E6E876
:102B4000FAE080818183C090080BD090090BE0905F
:102B50000A0BF0900B0B8FEFC81AD80AE80AF80A94
:102B600084E798E1DBDFC701B60164DF8AE0DADEE3
:102B700080E798E1FF90EF90DF90CF90CFCFEF927A
:102B8000FF920F931F93CF937B018A01C2E48F3F83
:102B900009F0C4E580E2C6DE8C2FC4DE8AE3C2DE23
:102BA000F70160817181828193814ADF80EF94E037
:102BB000B5DFF801608171818281938141DF62E03C
:102BC00070E080E090E0CF911F910F91FF90EF9027
:102BD0000C94B80D0F931F93CF93DF9300D000D0C8
:102BE0001F921F92CDB7DEB7182F6091890B70919D
:102BF0008A0B072E000C880B990B0E94B6686D8318
:102C00007E838F8398878091850B9091860BA0910E
:102C1000870BB091880B89839A83AB83BC83AE0109
:102C20004B5F5F4FBE016F5F7F4F80E8A8DF609111
:102C3000280370912903072E000C880B990B0E9422
:102C4000B6686D837E838F839887809124039091EB
:102C50002503A0912603B091270389839A83AB8330
:102C6000BC83AE014B5F5F4FBE016F5F7F4F8FEF45
:102C700086DF00912A031F3F39F08CE21802F00131
:102C80001124EF57F44F028510E088EF94E046DFFF
:102C9000C801D1DE00912A0310E083EF94E03EDF0B
:102CA000C801C9DE28960FB6F894DEBF0FBECDBFAF
:102CB000DF91CF911F910F910895CF92DF92EF9204
:102CC000FF92CF93DF93EC01C880D980EA80FB802C
:102CD00084E894E023DFC701B601ACDECC80DD8060
:102CE000EE80FF8086E996E119DFC701B601A2DE1A
:102CF000C884D984EA84FB8482E996E10FDFC701A6
:102D0000B60198DE8AE0DF91CF91FF90EF90DF90DF
:102D1000CF9008CE0F931F93CF938C01C62F8EE0D8
:102D200093E0FCDEC801FADE8AE3FCDD80E38C0F71
:102D3000F9DD8AE0CF911F910F91F4CD87E991E001
:102D4000EDCE81E991E0EACECF93DF93FADFC09137
:102D50007F04D091800480EC96E1E0DECE01CEDEEF
:102D60008DEB96E1DF91CF91D9CE0F931F93CF9347
:102D7000811111C0C42F8B01E4DF86E592E1CEDE24
:102D8000C801CCDECC2339F08AE3CCDD8AE0CF91D8
:102D90001F910F91C7CDCF911F910F910895CF93A0
:102DA000C82F41E0E2DFC11102C0CF91CACFCF915D
:102DB0000895CF92DF92EF92FF926A017B01AEDE1F
:102DC000C701B601FF90EF90DF90CF9039CECF933F
:102DD000DF936EEA76E1E3DFC7E1D4E04C895D89F9
:102DE0006E897F8986EA96E1E4DF488D598D6A8D88
:102DF0007B8D83EA96E1DDDF4C8D5D8D6E8D7F8D61
:102E000080EA96E1D6DF48A159A16AA17BA18DE9AC
:102E100096E1CFDF8AE0DF91CF9184CD4F925F9230
:102E20006F927F928F929F92AF92BF92CF92DF92DA
:102E3000EF92FF920F931F93CF93DF93CFE5D4E0F0
:102E40004C845D846E847F840BE014E0F80124815F
:102E50003581468157816C817D818E819F810E9461
:102E6000FA6C4B015C01F801208531854285538560
:102E7000688579858A859B850E94FA6C6B017C0147
:102E8000F8012081318142815381688179818A8171
:102E90009B810E94FA6CAB01BC018AE996E189DF53
:102EA000B501A40186E996E184DFB701A60182E9B4
:102EB00096E17FDFB301A2018EE896E1DF91CF9129
:102EC0001F910F91FF90EF90DF90CF90BF90AF9048
:102ED0009F908F907F906F905F904F906ACFCF932D
:102EE000DF93CDB7DEB72C970FB6F894DEBF0FBED9
:102EF000CDBF94DF0ED99CE0E6EFF2E0DE01119643
:102F000001900D929A95E1F7811110D9CE010196A9
:102F1000D4DE2C960FB6F894DEBF0FBECDBFDF9186
:102F2000CF910895CF93C82F41E06BED72E01DDF84
:102F3000C11101C006DF4091A10B5091A20B60911D
:102F4000A30B7091A40B82ED92E033DF21E732EB0B
:102F500047E25EE36091A50B7091A60B8091A70BF1
:102F60009091A80B0E94D66DAB01BC018FEC92E052
:102F700020DF21E732EB47E25EE36091A90B70911D
:102F8000AA0B8091AB0B9091AC0B0E941569AB0121
:102F9000BC018CEC92E00DDF8AE0CF91C3CC09DF5D
:102FA0008AE0C0CCCF93DF9362E073E0F8DEC8E83C
:102FB000D3E0488159816A817B8189EF92E0F9DE13
:102FC0004C815D816E817F8183EA96E1F2DE4885E6
:102FD00059856A857B8580EA96E1DF91CF91DFCFC5
:102FE000CF93C091980381110CC040E067EB71E072
:102FF000BCDEC11103C08AEA91E090DD8AE092DC78
:10300000A0DE81EA91E08ADD6C2F70E090E080E044
:10301000F8DC409194035091950360919603709170
:1030200097038EE991E0CF91BACF67E772E0B7DE00
:1030300060912704709128048091290490912A04BA
:103040000E94B468AB01BC018EE692E0B2DE409112
:103050005704509158046091590470915A048BE6BA
:1030600092E0A7DE40915B0450915C0460915D04A6
:1030700070915E0488E692E09CDE4091CF0350910F
:10308000D0036091D1037091D20385E692E087CF9F
:10309000CF93DF936BE172E082DEC7E1D4E04CA90D
:1030A0005DA96EA97FA982E192E083DE48AD59ADAA
:1030B0006AAD7BAD8FE092E07CDE4CAD5DAD6EAD78
:1030C0007FAD88E692E0DF91CF9169CFCF93DF9318
:1030D00067EF71E064DEC7E1D4E04CA15DA16EA1B1
:1030E0007FA18EEE91E065DE48A559A56AA57BA576
:1030F00083EA96E15EDE4CA55DA56EA57FA580EA1C
:1031000096E157DE48A959A96AA97BA98DE996E1FC
:1031100050DE8AE0DF91CF9105CCCF93DF9362ED53
:1031200071E03DDEC7E1D4E0688179818A819B81CD
:103130000E94B468AB01BC0189EC91E03ADE6C817D
:103140007D818E819F810E94B468AB01BC0183EABE
:1031500096E12FDE688579858A859B850E94B46813
:10316000AB01BC0180EA96E124DE6C857D858E850D
:103170009F850E94B468AB01BC018DE996E119DE20
:103180008AE0DF91CF91CECBC9DC8AE0CBCBEC01DA
:10319000162F66DA209719F0D4DDCE01F5DFCEDDEB
:1031A0008DE798E1BBDC89EE93E0019739F000C030
:1031B0000000EEE5F9E03197F0F7F7CFF89489EEEB
:1031C00093E0019739F000C00000E6EEF3E031979C
:1031D000F0F7F7CF45DA112319F00E944C0FFFCF1B
:1031E0000E94110FFCCFEF92FF920F931F93CF938A
:1031F000C82F7B018A0180911506833068F09EDD1F
:10320000C7018CDC84E994E089DCCF3FA1F480E93C
:1032100094E084DC8AE086DB23DA80910603811166
:1032200018C081E08093060382E08093150618DAC7
:1032300060E0C801ACDFC7FDEDCF8EE894E06EDC46
:103240006C2FCC0F770B880B990BDBDB8AE06ADBEA
:10325000E1CFCF911F910F91FF90EF9008953F9292
:103260004F925F926F927F928F929F92AF92BF9296
:10327000CF92DF92EF92FF920F931F93CF93DF9342
:10328000EC015B014A01322EFA01408051806280DC
:103290007380A30192016D817E818F8198850E9448
:1032A000B0688823A1F04D825E826F827886772491
:1032B000739420E030E0A901F40160817181828182
:1032C00093810E94206F18160CF0712C7C828C81E7
:1032D0008230A1F0833009F455C08130A9F52D81E9
:1032E0003E814F815885F501608171818281938192
:1032F0000E94B06887FD28C082E08C83F5012081A0
:103300003181428153816D817E818F8198850E94B8
:10331000F96C2B013C010E94E90D4B015C01A701F6
:103320009601C301B2010E94B0681816FCF0980122
:10333000A8EEB3E00E94BC6C860E971EA81EB91EB4
:1033400088829982AA82BB82DF91CF911F910F91CF
:10335000FF90EF90DF90CF90BF90AF909F908F90B5
:103360007F906F905F904F903F90089588819981F2
:10337000AA81BB81881A990AAA0ABB0AB7FCE4CFC2
:1033800083E08C834BE151E16BE271E1832DDF91AE
:10339000CF911F910F91FF90EF90DF90CF90BF9052
:1033A000AF909F908F907F906F905F904F903F90E5
:1033B0001ACF42EB54E06FEB74E015CFCF93C82FD8
:1033C00041E067E774E0D1DCC11101C0BADC8FE6EF
:1033D00094E0A4DB8AE394E0D7DE41E06DE574E09D
:1033E0008C2FC3DCC11101C0ACDC80E494E096DB1F
:1033F0008C2FF6DD8C2FEBDC8C2F68DE8C2F8DDE96
:103400008C2F46DE8C2F11DE8C2FCCDD8C2FCF91B4
:1034100089CDCF93C82FCB0181DB84E693E07EDB9F
:1034200085E593E0CC2311F08AE593E0CF91ACCE13
:1034300089E793E073DB8CB163E773E085FB882752
:1034400080F9E7DF809103016DE673E08695817076
:10345000E0DF89B167E673E083FB882780F9D9CF85
:103460008091860A9091870A2FEF3FEF981751F0CD
:10347000E92FF0E0EA57F54F228130E09F5F9F7718
:103480009093870AC9010895CF92DF92EF92FF923D
:103490000F931F93CF938C01C62F50DCC090080B65
:1034A000D090090BE0900A0BF0900B0BC80136DBB3
:1034B000C701B601BFDA8AE035DAD2DF0196E9F753
:1034C0008C2F39DB10920D0B10920C0BCF911F91AA
:1034D0000F91FF90EF90DF90CF9008958F929F9281
:1034E000AF92BF92CF92DF92EF92FF920F931F9312
:1034F000CF93DF93B4E4A0E06A2F70E0AB014B0FF1
:10350000511D55954795411119C0EEEFF4E06591B5
:103510007491072E000C880B990B0E94B668DF91FE
:10352000CF911F910F91FF90EF90DF90CF90BF90C0
:10353000AF909F908F900895B42FE0CF4A1711F06D
:10354000B41303C0EAE0F6E0E2CF9A01215031095A
:10355000220F331F220F331FF901E450FB4FE59078
:10356000F490F901E050FB4FC591D4918E159F0561
:1035700018F3A42FC817D90708F4BECFF901E250F9
:10358000FB4F05911491F901EE5FFA4FC590D4906D
:103590008E199F09BC0190E080E00E94B4684B0145
:1035A0005C01B601601B710B072E000C880B990B98
:1035B0000E94B6689B01AC01C501B4010E94156967
:1035C0004B015C01CE19DF09BE0190E080E00E9452
:1035D000B4689B01AC01C501B4010E94D66D6B01BA
:1035E0007C01B801110F880B990B0E94B6689B01F2
:1035F000AC01C701B6010E94FA6C91CFCF93DF9363
:103600008091830B9091840B69DF6093850B70939D
:10361000860B8093870B9093880B80912203909167
:1036200023030E942A0E6093240370932503809342
:10363000260390932703C091830BD091840B809134
:103640000B0290910C02C817D90710F480E0B1DE8C
:103650008091890B90918A0B181619066CF4809151
:10366000090290910A028C179D0730F441ED54E055
:103670006EED74E080E0B7DD2091310330913203CC
:1036800080912203909123038217930710F48FEF08
:1036900090DE8091280390912903181619069CF456
:1036A0002091070230910802809122039091230318
:1036B0002817390740F441ED54E06EED74E08FEFC8
:1036C000DF91CF9190CDDF91CF9108952F923F92CE
:1036D0004F925F926F927F928F929F92AF92BF9222
:1036E000CF92DF92EF92FF920F931F93CF93DF93CE
:1036F000CDB7DEB762970FB6F894DEBF0FBECDBF71
:1037000080911506882369F080911B03811109C0FF
:1037100081E080931B038091820381111BC0109272
:103720001B0362960FB6F894DEBF0FBECDBFDF91CC
:10373000CF911F910F91FF90EF90DF90CF90BF90AE
:10374000AF909F908F907F906F905F904F903F9041
:103750002F90089553DF109282030E94E90D6D832C
:103760007E838F83988760910F0270911002072EDD
:10377000000C880B990B0E94B6684B015C01AC01F0
:103780009B016091850B7091860B8091870B9091C6
:10379000880B0E94206F181614F480E00ADE6091F6
:1037A000890B70918A0B072E000C880B990B0E94D5
:1037B000B66869837A838B839C83C12CD12C30E8D3
:1037C000E32E30E4F32E08E210E020E0AE014F5F7C
:1037D0005F4F65E87BE08FE69BE041DD2091850B44
:1037E0003091860B4091870B5091880B29873A873F
:1037F0004B875C8760910D0270910E02072E000CC2
:10380000880B990B0E94B6689B01AC0169857A858B
:103810008B859C850E94206F18160CF00EC229859E
:103820003A854B855C85C501B4010E94206F18164E
:103830000CF003C280911303811109C081E89BE061
:10384000909312038093110381E0809313030091FE
:10385000110310911203D80118966D917C91072ED7
:10386000000C880B990B0E94B6686B017C0120E06C
:1038700030E0A9010E94B0688823C9F0D8011496ED
:103880002D913D914D915C9117972D873E874F87E4
:10389000588BC701B6010E94F96C4B015C0120E016
:1038A00030E040E251EC0E94B06887FF07C081E041
:1038B000F8018387C12CD12C7601D5C020E030E0FF
:1038C00040E251E4C501B4010E94206F18165CF477
:1038D00081E0D8011B968C93C12CD12C2FE7E22ECE
:1038E00023E4F22EC0C0F8018385882349F01386B3
:1038F0001486158616861786148E158E168E178ECC
:10390000D8019496CD90DD90ED90FC9097971C9601
:103910002D913D914D915C911F97C501B4010E947D
:10392000FA6C762E672E582E492E20E030E0A90141
:103930000E94B06887FD7CC1A701960160E070E03D
:103940008FE793E40E94D66D698B7A8B382E292EEF
:10395000272D362D452D542D0E94B06887FF03C0BA
:1039600079886A882101872D962DA52DB42DF8011F
:1039700084879587A687B78720A131A142A153A14B
:10398000C501B4010E9415694B015C01D801549630
:103990008D929D92AD92BC925797272D362D452D35
:1039A000542DC701B6010E9415692B013C01F80195
:1039B000408E518E628E738EC48CD58CE68CF78CC3
:1039C0002D853E854F8558896089718982899389C3
:1039D0000E94F96CD80198962D913D914D915C9182
:1039E0009B970E941569A70196010E94F96C20ED32
:1039F0003CEC4CE45DE30E941569A70196010E942E
:103A0000FA6C6B017C01F801C48ED58EE68EF78EC0
:103A10002D853E854F855889208B318B428B538B6A
:103A2000A3019201C501B4010E94FA6CA70196019D
:103A30000E94FA6C20E030E0A9010E94FA6C6B0150
:103A40007C0120E030E0A9010E94B06887FD32CF00
:103A500020E030E04FE753E4C701B6010E94206F39
:103A600018160CF439CFC701B6010E943E6E759549
:103A7000679560938B0B80912D0390912E03A091FD
:103A80002F03B09130030097A105B105E1F02D811E
:103A90003E814F815885281B390B4A0B5B0BDA019D
:103AA000C901B7FD10C069857A858B859C850E9408
:103AB0003E6E20912B0330912C03621773070CF498
:103AC000BEC00E94F50D20E030E046E153E4609175
:103AD00024037091250380912603909127030E946F
:103AE000206F181614F48FEF64DC80910D03909111
:103AF0000E03A0910F03B09110030097A105B1052B
:103B000001F12D813E814F815885281B390B4A0BCD
:103B10005B0BDA01C901B7FD14C0609124037091F9
:103B2000250380912603909127030E943E6E2091E9
:103B30000B0330910C03621773070CF487C00E94CB
:103B4000FB128091070390910803A0910903B091A3
:103B50000A032D813E814F815885281B390B4A0B62
:103B60005B0BDA01C901B7FDDACD8D819E81AF8192
:103B7000B88588579C4EAF4FBF4F809307039093F3
:103B80000803A0930903B0930A036091280370917E
:103B90002903072E000C880B990B0E94B6686983D5
:103BA0007A838B839C83C12CD12CE12C80E4F82E6A
:103BB00004E110E02FEFAE014F5F5F4F64E273E06E
:103BC00088E79BE04CDBC0902403D0902503E09075
:103BD0002603F090270320E030E040EA50E4C701DC
:103BE000B6010E94206F87FD3AC020E030E046E138
:103BF00053E4C701B6010E94B068181684F16091C1
:103C0000280370912903072E000C880B990B0E9442
:103C1000B668A70196010E94F96C20E030E0A90186
:103C20000E94206F1816CCF48FE780932A0377CD7B
:103C3000712C612C512C412C96CE60E01ACF4BE3B5
:103C400051E16AE471E180E0CEDA3DCF4BE351E12E
:103C50006AE471E18FEFC7DA74CF80E0E6CF1092AB
:103C60002A038091020180728093000158CDCF9287
:103C7000DF92EF92FF926B017C0183E3C816D104BF
:103C8000E104F10468F082E3C81AD108E108F10800
:103C900062E370E080E090E00E94B80D17DDEDCFA8
:103CA000C701B6010E94B80DFF90EF90DF90CF9052
:103CB0000DCD8091AE03882329F062E070E080E0B2
:103CC00090E0D5CF08958091B9039091BA03009701
:103CD00031F04AE050E070E060E00C94136660E080
:103CE00070E0CB010895EFDFCB010895ECDF97FD85
:103CF0000AC0E9DF6F3F71058105910509F02CF4D9
:103D0000E2DF862F089580E008958FEF0895CF9326
:103D100084E50E94C113C0E08823F9F0E7DFC82FD3
:103D20001816DCF40ED88DE40E9492146091CB0337
:103D30007091CC0390E080E00E94991486EE92E0AE
:103D40000E948E156C2FCC0F770B880B990B0E945D
:103D500001158AE00E949214CFEF8C2FCF91089525
:103D60008091B9039091BA03892B39F0BFDF91E0BC
:103D7000811101C090E0892F089591E0FCCFCF938D
:103D8000DF93C82FD62F0E94C113882319F0DF912B
:103D9000CF91E6CF8C2F0E947313811101C08D2F1C
:103DA000DF91CF9108954F925F926F927F92AF9281
:103DB000BF92CF92DF92EF92FF920F931F93CF9318
:103DC000DF9310929A03109299032FE32093CD036F
:103DD0001092CC031092CB031092B5031092B6034D
:103DE0001092B7031092B8039C01E90198812F5FEC
:103DF0003F4F9032D1F39E34C9F4898190ED980FF2
:103E00009A3020F08D3211F08B3281F422969E018F
:103E10002F5F3F4F888180538A3008F46EC09E0127
:103E20002F5F3F4F8881803209F469C0D0938004AE
:103E3000C0937F047E012FEFE21AF20A18816AE232
:103E400070E0C7010E94BE6F009731F0FC0131970E
:103E500080818032E1F311821D3421F0143511F09C
:103E60001734E1F5F70180819FEFE91AF90A8032F2
:103E7000C9F380538A3090F51093CD0390E080E031
:103E80006AE0AF014F5F5F4F689F9001699F300DFF
:103E90001124C901C0972081820F911D27FD9A9599
:103EA000FA01208120532A3060F39093CC03809351
:103EB000CB03DF0131962C912032D9F31D3459F513
:103EC0008E31910539F0E8F48731910519F08C3184
:103ED000910509F5B0939A03A0939903DF91CF91CF
:103EE0001F910F91FF90EF90DF90CF90BF90AF9018
:103EF0007F906F905F904F900895E90188CFE9011E
:103F00008ECF8537910538F08737910518F3803AC1
:103F1000E3E09E07F9F240E050E0BA0130E020E033
:103F2000C12CD12C7601C394FD0131960C91002354
:103F300009F48CC00132F1F41D34E1F480329105B2
:103F4000C9F44093B5035093B6036093B7037093DD
:103F5000B803F0939A03E093990363E270E0CF0112
:103F60000E94BE6F009709F4B9CFFC011082B6CF52
:103F7000DF01DACF01540A3108F063C0DF01BD90E0
:103F8000D0E2AD2EBA1499F0A0EDAB0DAA3008F135
:103F9000AEE2BA120EC0A181A053AA30D0F0211512
:103FA000310519F49F0121503109B12C16C0FD01D2
:103FB000E5CFADE2AA2EBA1419F0ABE2BA12EFCFF8
:103FC000A181B0EDBA0FBA3020F0AE3241F7A28134
:103FD000E3CFBE2EBC1A309741F3A02FB0E02601EC
:103FE000370104C0440C551C661C771C0A95D2F797
:103FF0004429552966297729A758BD4FBC92A0812D
:10400000A154AA3108F4B4CFDF010191002309F4CF
:104010008BCFD0EDBD2EB00ED9E0AD2EAB14A0F7F6
:10402000D3EDBD2EB00EAA24A394AB1468F70B32C7
:1040300059F3FD0131960C91003209F075CFDF0183
:10404000F8CF21153105D9F69D01D9CF30939A03C8
:10405000209399034093B5035093B6036093B7033D
:104060007093B8033BCF4F925F926F927F928F9283
:104070009F92AF92BF92CF92DF92EF92FF92CF9337
:10408000DF93EC01209137043091380440913904DA
:1040900050913A046C857D858E859F850E941569B7
:1040A0000E942B6F6B017C0120913304309134040A
:1040B0004091350450913604688579858A859B85C1
:1040C0000E9415690E942B6F4B015C0120912F0407
:1040D0003091300440913104509132046C817D81E3
:1040E0008E819F810E9415690E942B6F2B013C01DC
:1040F00020912B0430912C0440912D0450912E04DA
:10410000688179818A819B810E9415690E942B6F49
:104110006093B60B7093B70B8093B80B9093B90B69
:104120004092BA0B5092BB0B6092BC0B7092BD0BCD
:104130008092BE0B9092BF0BA092C00BB092C10BAD
:10414000C092C20BD092C30BE092C40BF092C50B8D
:104150009091B00B8091B10B981779F0DF91CF91CE
:10416000FF90EF90DF90CF90BF90AF909F908F9097
:104170007F906F905F904F90FDC637D70E94891057
:10418000C82F86EB9BE00E94BA0ECC2381F0DF9112
:10419000CF91FF90EF90DF90CF90BF90AF909F9026
:1041A0008F907F906F905F904F900C949610DF915E
:1041B000CF91FF90EF90DF90CF90BF90AF909F9006
:1041C0008F907F906F905F904F900895CF93DF9383
:1041D000CDB7DEB760970FB6F894DEBF0FBECDBF88
:1041E00080E1EFE5F4E0DE01119601900D928A95F1
:1041F000E1F7CE01019637DF60960FB6F894DEBF87
:104200000FBECDBFDF91CF9108950F931F93CF9332
:10421000DF930BE214E0C8EFD3E0F8012191319174
:10422000419151918F0160E070E080E89FE30E942E
:10423000D66D6993799389939993F4E0C830DF0739
:1042400061F7C4DFDF91CF911F910F910C94D40FD0
:104250002F923F924F925F926F927F928F929F9296
:10426000AF92BF92CF92DF92EF92FF920F931F9384
:10427000CF93DF9300D000D01F92CDB7DEB7A7E178
:10428000B4E090E080E0FC01E65DFB4F4591559184
:10429000659174914D935D936D937D93FC01E65E02
:1042A000FB4F459155916591749150964D935D9357
:1042B0006D937C935397FC01E65FFB4F45915591BD
:1042C0006591749190964D935D936D937C939397C4
:1042D000049680319105B9F680E29EE4A0E0B0E05A
:1042E0008093270490932804A0932904B0932A0470
:1042F00080E090E8ABE3B5E480934B0490934C04EA
:10430000A0934D04B0934E0480934F0490935004B7
:10431000A0935104B0935204809353049093540497
:10432000A0935504B0935604109257041092580469
:104330001092590410925A0410925B0410925C047B
:1043400010925D0410925E0484EF9DEFA4E5BCE33F
:104350008093CF039093D003A093D103B093D20363
:10436000109288031092890310928A0310928B0393
:1043700010928C0310928D0310928E0310928F0373
:104380001092900310929103109292031092930353
:104390008AE999E9A1EBB1E48093A10B9093A20B78
:1043A000A093A30BB093A40B81EE9CE1A5E3BEE325
:1043B0008093A50B9093A60BA093A70BB093A80B8B
:1043C00083E397E0AEE2B4E48093A90B9093AA0B49
:1043D000A093AB0BB093AC0B1092980380E090E0ED
:1043E000A0EEBFE38093940390939503A09396036C
:1043F000B09397031092AE031092AD035ADC409035
:104400005F0450906004609061047090620480903A
:10441000630490906404A0906504B0906604C0901A
:104420006704D0906804E0906904F0906A04809179
:104430006B0490916C04A0916D04B0916E048A831A
:104440009B83AC83BD830E94D40F81E080938C0B4F
:104450000E9422100CED13E0A9E1B2E0BF83AE830D
:1044600080ED282E83E0382E198289810E94451123
:10447000F80185919591A591B491EE81FF81819389
:104480009193A193B193FF83EE83F101859195916F
:10449000A591B491EE81FF8180879187A287B38730
:1044A000F981FF5FF9830C5F1F4F84E0280E311CF8
:1044B000F330D9F6AADE20915F0430916004409178
:1044C000610450916204C301B2010E94B06881117D
:1044D0002BC0209163043091640440916504509195
:1044E0006604C501B4010E94B06881111DC020910D
:1044F0006704309168044091690450916A04C701CF
:10450000B6010E94B06881110FC020916B043091F8
:104510006C0440916D0450916E046A817B818C81A2
:104520009D810E94B06881110E946F170E94A116A0
:1045300088EE93E027960FB6F894DEBF0FBECDBF8E
:10454000DF91CF911F910F91FF90EF90DF90CF906F
:10455000BF90AF909F908F907F906F905F904F90A3
:104560003F902F900C94C4184F925F926F927F925D
:104570008F929F92AF92BF92CF92DF92EF92FF9273
:104580000E9489109091B10B9093B00B9093AF0B58
:104590009093AE0B94E69093AD0B21ED33E0309306
:1045A00009042093080481110E94961081E08093F1
:1045B000F5021BD580E00E94A3102B013C01409224
:1045C0009C0250929D0260929E0270929F0281E036
:1045D0000E94A3104B015C018092A0029092A10264
:1045E000A092A202B092A30282E00E94A3106B01EB
:1045F0007C01C092A402D092A502E092A602F092A1
:10460000A70283E00E94A31040925F0450926004CE
:1046100060926104709262048092630490926404D8
:10462000A0926504B0926604C0926704D0926804B8
:10463000E0926904F0926A0460936B0470936C04D6
:1046400080936D0490936E04FF90EF90DF90CF9075
:10465000BF90AF909F908F907F906F905F904F90A2
:10466000B5CD2F923F924F925F926F927F928F9231
:104670009F92AF92BF92CF92DF92EF92FF920F93F1
:104680001F93CF93DF93CDB7DEB763970FB6F89440
:10469000DEBF0FBECDBF80918104843008F068C1B9
:1046A00011E6F12EEE24E39480918104843008F029
:1046B0005FC18091860A9091870A891B8F7709F4E0
:1046C00057C10E94301A97FF0BC00E949E1688E5C2
:1046D00098E10E948E158091860A8093870AE4CF24
:1046E0008A3019F08D3009F006C110926E0B80915E
:1046F0000C0B90910D0BFC01E85FF44F1682892B97
:1047000019F40E94661BD0CF10920D0B10920C0B67
:104710000EE01BE0F8018191803209F449C08E342B
:1047200009F07DC063E578E1C8010E9467686C010B
:10473000892B41F06EE470E0C80104960E94BE6FC0
:10474000009709F4C8014AE050E070E060E001968B
:104750000E9413664B015C018091080B9091090B3C
:10476000A0910A0BB0910B0BAC01BD014F5F5F4FE5
:104770006F4F7F4F84169506A606B706D9F0CD2851
:10478000C9F4AC01BD014150510961097109841698
:104790009506A606B70634F088159905AA05BB0547
:1047A0000CF082CF60E080E298E10E94441A7CCF56
:1047B0008F01B0CF6AE270E0C8010E94D06F9C0107
:1047C000009709F1982F901BD12C992339F0915023
:1047D000F801E90FF11D8081D826F7CF4AE050E0BB
:1047E00070E060E0C90101960E9413664D2C512CC7
:1047F000712C612C641575058605970541F060E004
:1048000081E098E1D2CF60E087ED97E1CECF809252
:10481000080B9092090BA0920A0BB0920B0B80919F
:1048200015068130B9F467E470E0C8010E94BE6FDC
:10483000009781F04AE050E070E060E001960E944D
:104840001366643071058105910520F480E697E1D7
:104850000E948E15F80180818D34B9F483818233F2
:10486000E1F1883351F0803381F48181843369F43C
:104870008281813351F478DE08C08281803329F44B
:104880008181813311F41092450280910E0B8B339C
:1048900009F40ACF80918104843008F005CF80911B
:1048A00083048F9DC00111246EE07BE08C579B4FE9
:1048B0000E94C96F80918304F89EF0011124EC518D
:1048C000FB4F10828F5F843098F480938304809133
:1048D00081048F5F80938104E7CE82818133A9F6C2
:1048E0008181813391F661E082E597E10E94C718EA
:1048F00010928304ECCF90916E0B913009F4D4CEDA
:104900009430B0F0945090936E0B8830C9F480913D
:104910000C0B90910D0B009709F4C6CE0197909364
:104920000D0B80930C0B885F944FFC011682BCCE5C
:104930008C35C9F49C5F90936E0B943009F4B4CE1F
:1049400020910C0B30910D0BA9014F5F5F4F5093DD
:104950000D0B40930C0B285F344FF90186834F35C4
:1049600051051CF4A1CE8B3381F6E0926E0B9CCEE8
:104970000E94E90D6B017C0180910D0690910E065D
:10498000A0910F06B09110060097A105B10571F135
:104990004091110650911206609113067091140611
:1049A000840F951FA61FB71F46015701881A990A41
:1049B000AA0ABB0AD501C401B7FD18C00E949E1601
:1049C0008FE397E10E948E1500917F04109180047F
:1049D00084E197E10E948E15C8010E947E158AE04D
:1049E0000E94921460E090E080E080CF9091B00B44
:1049F0008091B10B981741F0C0921106D092120627
:104A0000E0921306F09214068090460290904702BE
:104A1000A0904802B090490281149104A104B1040D
:104A200029F0981709F44AC010920C0680910806E4
:104A300090910906A0910A06B0910B06A701960174
:104A4000281B390B4A0B5B0BDA01C901B7FDDAC130
:104A50009091B00B8091B10B20914402981709F40A
:104A600054C0E091B10B37E4E39FF0011124E45A04
:104A7000F94F8081281709F486C0809344020E9470
:104A8000E90D209144022223B9F030E050E040E0EB
:104A90002150310941095109AFEFB0E00E94B26CD9
:104AA0002EEF30E040E050E00E94966C49015A0140
:104AB00089012115310561F560E01FC10E94E90DF2
:104AC00000911106109112062091130630911406E0
:104AD000800E911EA21EB31E681979098A099B09CE
:104AE00097FDA2CF80910C068111A0CF81E0809329
:104AF0000C0680E00E94200F81E00E94200F82E0DF
:104B00000E94200F0E94110F91CF80917E04B2CF9E
:104B100061E02F3F310509F4F0C069E0CE01019654
:104B20000E94CF138989882309F4E2C0E981FA81C0
:104B30008F85488981119DC0608150E083E090E0BD
:104B40009C01241B350B220F331F022E01C0880F3E
:104B50000A94EAF78095862362E070E001C0660F50
:104B60002A95EAF7862B8083FA013396EE0FFF1F12
:104B700041E050E04C0F5D1FE40FF51F0190F08104
:104B8000E02D9182808280917D04882309F42DC1DB
:104B9000A0904202B0904302C50102972091890B78
:104BA00030918A0B281739070CF41FC19090B10B74
:104BB000612C712C812C1B8A8091B00B891509F412
:104BC000A0C0892D90E027E4289FF001299FF00DD7
:104BD0001124EA5EF94F458956896789708D452B06
:104BE000462B472B81F4418D528D638D748D452B5F
:104BF000462B472B41F4458D568D678D70A1452B73
:104C0000462B472B89F137E4389F8001399F100DDF
:104C100011240A5E194FF80161A172A183A194A128
:104C20000E94B4681B012C01F80165A176A187A13F
:104C300090A50E94B4689B01AC01C201B1010E9421
:104C4000D66DF80121813281438154810E9415691A
:104C50002B018C019301482D5B890E94206F18164F
:104C60001CF43201802E1B8B892D0E94CB10982EB4
:104C7000A3CF9A89911187CFAFEFB0E0823029F0AE
:104C8000AD85BE850D90BC91A02D608150E083E084
:104C900090E09C01241B350B220F331F022E01C014
:104CA000880F0A94EAF78095862362E070E001C0DD
:104CB000660F2A95EAF7862B80834D5F5F4F440F7E
:104CC000551F81E090E08C0F9D1F480F591FFA017E
:104CD00000811181A50194010E94B26C2FEF30E098
:104CE00040E050E00E94746CF801318320834BCF88
:104CF00061E00F37110508F4DFCE89E00E94070D4F
:104D000042CFB501BB0C880B990B0E94B6685B01C2
:104D10008C0120913E0230913F024091400250911F
:104D20004102B301882D9B890E9415699501A80154
:104D30000E94FA6C2B013C0180903C0290903D0255
:104D40009B01AC01B501C8010E94206F181694F0B8
:104D5000B401990C880B990B0E94B6685B018C0119
:104D60009B01AC01B201C3010E94206F181614F020
:104D7000520183014090790450907A0460907B0442
:104D800070907C049501A801C301B2010E94206FBC
:104D90001816D4F420E037ED43EA5CE3B501C8010E
:104DA0000E9415694B015C0128E431EE4AE75FE39C
:104DB000C301B2010E9415699B01AC01C501B40198
:104DC0000E94FA6C5B018C01C501D80180937904C3
:104DD00090937A04A0937B04B0937C04B501C8013E
:104DE0000E943E6ECB010E946E0FF4E6CF0ED11CE6
:104DF000E11CF11CC0920806D0920906E0920A0656
:104E0000F0920B060E94661B80911506882309F418
:104E100098C00E94E90D6B017C0110913B021123A7
:104E2000F1F0809173048823D1F040916F04509188
:104E30007004609171047091720446015701841AE4
:104E4000950AA60AB70AB501A40177FD1AC08330F6
:104E500009F472C00CF061C081300CF066C0212FE3
:104E600030E0A8EEB3E00E94BC6CC60ED71EE81E70
:104E7000F91EC0926F04D0927004E0927104F09217
:104E8000720480917804882309F45BC00E94E90DC4
:104E90006B017C018091740490917504A09176045B
:104EA000B0917704A7019601281B390B4A0B5B0BC5
:104EB000DA01C901B7FD45C02091780430E0A8EEC1
:104EC000B3E00E94BC6CC60ED71EE81EF91EC0924D
:104ED0007404D0927504E0927604F092770480E036
:104EE0000E94EA158AE063960FB6F894DEBF0FBE03
:104EF000CDBFDF91CF911F910F91FF90EF90DF9089
:104F0000CF90BF90AF909F908F907F906F905F9069
:104F10004F903F902F900C949214843009F09FCFC3
:104F20000E94A11683ED96E104C00E94A11682E0C2
:104F300097E10E948E1593CF0E94A1168BEE96E109
:104F4000F8CF63960FB6F894DEBF0FBECDBFDF91EA
:104F5000CF911F910F91FF90EF90DF90CF90BF9076
:104F6000AF909F908F907F906F905F904F903F9009
:104F70002F900895CF93DF939091B10B8091B00B58
:104F8000891728F0891B8F3021F46BDBF5CF805F08
:104F9000F9CF8091B00B0E94CB10A091B00B97E499
:104FA000A99FD0011124FD01EA5EF94FEF0119928A
:104FB0009A95E9F7908198609083A55DB94F90E14B
:104FC000E6EBFBE001900D929A95E1F72091B00B92
:104FD0009091B10B291303C094E69093AD0B80938D
:104FE000B00BDF91CF910C9496109091B00B809103
:104FF000B10B981306C08091080490910904892B85
:1050000011F02FDBF2CF0895FC0120813181428124
:1050100053816091370470913804809139049091E4
:105020003A040E9415690E942B6F6093C20B709323
:10503000C30B8093C40B9093C50B9091B00B8091E0
:10504000B10B981397CFD1DF0E9489104091C20B0A
:105050005091C30B6091C40B7091C50B4093020338
:1050600050930303609304037093050381110C9420
:10507000961008959091B00B8091B10B981308C0D1
:105080008091080490910904892B11F40C944C0F21
:10509000E8DAF0CF2F923F924F925F926F927F9219
:1050A0008F929F92AF92BF92CF92DF92EF92FF9238
:1050B0000F931F93CF93DF93CDB7DEB763970FB6F0
:1050C000F894DEBF0FBECDBF90910A0493FD47C197
:1050D000898383E50E94C1138887882309F437C137
:1050E0000E94731E8C3891050CF052C190932903D5
:1050F000809328030E94FB12698131E06327898134
:105100000E94E7124981442309F429C151E05093D8
:1051100045021A821B821C821D8219861A861B86F2
:105120001C861E868CE38F879CE1988BA6E4A98B56
:10513000312C212CB0E8BA8B2FEB2B8B198231E06C
:105140003D87812C912C5401609128037091290393
:10515000072E000C880B990B0E94B6687B018C010E
:10516000232D322D4A895B890E94B0688823B9F0CB
:105170002091240330912503409126035091270369
:105180008885B701811107C1C8010E94B068881FD6
:105190008827881F89833E2C2F2C0A8B1B8B0E940B
:1051A000E90D6B017C01DC01CB0129853A854B853A
:1051B0005C85821B930BA40BB50BB7FD2EC0D701EA
:1051C000C60188519C4FAF4FBF4F89879A87AB87E5
:1051D000BC8780E00E94EA1581E593E00E948E156D
:1051E00081149104A104B10409F4E7C0C501B4011C
:1051F000605F784D8F4F9F4F6C197D098E099F0915
:1052000028EE33E040E050E00E94746CCA01B9011E
:105210000E941A158AE00E94921423DA0E94E90D76
:1052200060931106709312068093130690931406F0
:10523000909124039E83A0912503AF8300912603C0
:1052400010912703292F3A2FA801632D722D8A89E7
:105250009B890E94F96C2B013C0120E030E0A90100
:105260000E94206F87FF04C077FA709477F87094DB
:1052700081149104A104B10409F0A3C020E030E03E
:1052800040E85FE3C301B2010E94B06887FF10C02D
:10529000BD85812C912C5401BB2331F085E0882EF3
:1052A0008DE0982EA12CB12C8C0C9D1CAE1CBF1C2B
:1052B00029812223A9F18A819B81AC81BD81892B1F
:1052C0008A2B8B2B61F0D701C6012A813B814C814F
:1052D0005D81821B930BA40BB50BB7FD21C02E8102
:1052E0003F81A8016E857F85888999890E94F96C24
:1052F00020E030E040E85FE30E94B06887FD50C0E6
:10530000D701C601805A9541AF4FBF4F8A839B8317
:10531000AC83BD839E819E87AF81AF87088B198B3D
:10532000809145028823E1F181149104A104B10424
:1053300061F0B0E1CB1AB7E2DB0AE108F108C81866
:10534000D908EA08FB08F7FE2BC01D86FDCE29818F
:10535000222329F082E50E94C1138111C1CE6396F8
:105360000FB6F894DEBF0FBECDBFDF91CF911F9176
:105370000F91FF90EF90DF90CF90BF90AF909F90F4
:105380008F907F906F905F904F903F902F900895F7
:105390008CE890E0ABCEC8010E94B06887FF07C0E0
:1053A000809145028823D9F210924502D8CF3E2C35
:1053B0002F2C0A8B1B8B1982F2CE8FE30E94921442
:1053C00029CF20E030E040E450E4C301B2010E9464
:1053D000206F18160CF06CCF4601570169CF4F9221
:1053E0005F926F927F928F929F92AF92BF92CF9275
:1053F000DF92EF92FF920F931F93CF93DF93CDB77E
:10540000DEB72E970FB6F894DEBF0FBECDBF9E87D6
:105410008D875B018A01DC01D6966D917D918D911E
:105420009C91D9970E94B4686B017C01F5012081A1
:105430003181428153810E9415690E94C06D4B01E8
:105440005C01D8012D913D914D915C91C701B60150
:105450000E9415690E94C06D2B013C01C501B40179
:105460000E94436E6D837E838F83988768377105B2
:105470008105910540F408E710E020E030E00D835D
:105480001E832F833887C301B2010E94436E698354
:105490007A838B839C83683771058105910540F47D
:1054A00028E730E040E050E029833A834B835C8377
:1054B000AD85BE8595968D909D90AD90BC9098974A
:1054C000FD01EE5BFF4F60817181828193816115E7
:1054D00071058105910509F4D7C00E94B6689B014A
:1054E000AC0160E070E080E89FE30E94D66D20E0B0
:1054F00030E040E05FE30E9415692B013C01A70109
:105500009601C701B6010E9415696B017C01698192
:105510007A818B819C810E94B4689B01AC010E94BE
:1055200015699B01AC01C701B6010E94F96CA3018A
:1055300092010E94156969877A878B879C876D81A4
:105540007E818F8198850E94B4689B01AC010E9486
:1055500015699B01AC01C701B6010E94F96CA3015A
:1055600092010E9415692B013C010E94C06D0E94AE
:10557000436E6B017C0169857A858B859C850E94D1
:105580006F6E0E94436EDC01CB01B701A601480F8C
:10559000591F6A1F7B1F95018401041B150B260BE5
:1055A000370BB901A80177FF35C0C501B4010E94CE
:1055B000B468A30192010E94FA6C29853A854B8553
:1055C0005C850E94F96C20E030E040E05FE30E94DF
:1055D00015690E94C06D6B017C0120E030E0A901DB
:1055E0000E94206F18161CF0C12CD12C7601C70127
:1055F000B6010E94436E6B017C018C149D04AE04C5
:10560000BF0410F475016401D501C4018C199D0912
:10561000AE09BF09ED85FE85C1A6D2A6E3A6F4A614
:1056200095018401081B190B2A0B3B0BD901C801FA
:1056300085A796A7A7A7B0AB0D811E812F813885BE
:1056400002AF13AF24AF35AFFE9609811A812B81CB
:105650003C8100831183228333832E960FB6F89406
:10566000DEBF0FBECDBFDF91CF911F910F91FF9095
:10567000EF90DF90CF90BF90AF909F908F907F90F2
:105680006F905F904F90089580E090E0DC01C12C16
:10569000D12C7601BFCF2F923F924F925F926F92A3
:1056A0007F928F929F92AF92BF92CF92DF92EF92B2
:1056B000FF920F931F93CF93DF93CDB7DEB7C05800
:1056C000D1090FB6F894DEBF0FBECDBF7C018B01B0
:1056D000AA965FAF4EAFAA9720912B0430912C046D
:1056E00040912D0450912E04DC016D917D918D919E
:1056F0009C910E9415690E942B6FE8966CAF7DAF5C
:105700008EAF9FAFE89720912F04309130044091E5
:10571000310450913204F70164817581868197814B
:105720000E9415690E942B6FEC966CAF7DAF8EAF17
:105730009FAFEC97209133043091340440913504AD
:1057400050913604D70118966D917D918D919C9161
:105750001B970E9415690E942B6FC458DF4F688306
:1057600079838A839B83CC57D04020913704309132
:1057700038044091390450913A04F70164857585E5
:10578000868597850E9415690E942B6FA7966CAF3E
:105790007DAF8EAF9FAFA79780910A0483FF0EC0A5
:1057A000A7962CAD3DAD4EAD5FADA7972093C20B34
:1057B0003093C30B4093C40B5093C50BD8013C905E
:1057C00011962C9011971296BC912C96BFAF2C97E6
:1057D000F801F3816896FFAF68979091B10B8091C3
:1057E000B00B891730F0891B8F3029F40E943123C8
:1057F000F4CF805FF8CF8091B00B0E94CB10C058DF
:10580000DF4F8883C058D0400091B00B80910804CE
:1058100090910904892B11F00C94B03A8091B60B49
:105820009091B70BA091B80BB091B90BE8968CACE6
:105830009DACAEACBFACE897881A990AAA0ABB0A1D
:105840008091BA0B9091BB0BA091BC0BB091BD0B9A
:10585000EC962CAD3DAD4EAD5FADEC97281B390BF2
:105860004A0B5B0B29AF3AAF4BAF5CAF8091BE0BDD
:105870009091BF0BA091C00BB091C10BC458DF4FEA
:10588000288139814A815B81CC57D040281B390B54
:105890004A0B5B0B2DAB3EAB4FAB58AF8091C20BAD
:1058A0009091C30BA091C40BB091C50BA796CCAC43
:1058B000DDACEEACFFACA797C81AD90AEA0AFB0A1E
:1058C00009F461C00E94B00F8823B9F0A7968CAD8F
:1058D0009DADAEADBFADA7978093C20B9093C30BA8
:1058E000A093C40BB093C50B0E94A11683E796E169
:1058F0000E948E15C12CD12C7601C701B6010E94E1
:10590000B6682091370230913802409139025091A7
:105910003A020E9415692B013C0120E030E0A90108
:105920000E94206F87FF04C077FA709477F8709414
:1059300020E030E048E453E460913704709138048B
:105940008091390490913A040E941569A301920153
:105950000E94B06887FF17C0A7962CAD3DAD4EAD35
:105960005FADA7972093C20B3093C30B4093C40B3A
:105970005093C50B0E94A11684E596E10E948E15F6
:10598000C12CD12C7601D501C4018827B7FD8395A0
:105990009927AA27BB27182F29AD3AAD4BAD5CAD8F
:1059A00057FD12608DA99EA9AFA9B8ADB7FD1460CF
:1059B000F7FC1860C701B6010E94B6682091370253
:1059C000309138024091390250913A020E94156993
:1059D0006B017C0120E030E0A9010E94206F87FF6D
:1059E000BCC3C701B6019058A02FB0E0BCABABABB5
:1059F000B7E40B9F90011124F901EA5EF94F239659
:105A0000FFAFEEAF239720E030E040E05FE30E947D
:105A1000FA6C0E94436E27966CAF7DAF8EAF9FAF3E
:105A200027972396AEADBFAD23971C92D5961C93B6
:105A30002DA93EA94FA958AD2B962CAF3DAF4EAF27
:105A40005FAF2B9757FF0DC050954095309521952E
:105A50003F4F4F4F5F4F2B962CAF3DAF4EAF5FAFD9
:105A60002B9749AC5AAC6BAC7CAC77FE08C07094F9
:105A7000609450944094411C511C611C711C2196EF
:105A80008CAE9DAEAEAEBFAE2197B7FE0DC08827DF
:105A90009927DC0188199909AA09BB0921968CAFBD
:105AA0009DAFAEAFBFAF219721962CAD3DAD4EADB2
:105AB0005FAD21972396AEADBFAD239755962D933D
:105AC0003D934D935C935897FD01418E528E638EAA
:105AD000748E2B962CAD3DAD4EAD5FAD2B975D9684
